:0400000007EF00F016
:100008007C82D1ED06F003EF09F0000E536E030E6B
:10001800546E000E556E1C0E5524326E336A000E57
:10002800332255504B0F346E2DEC0AF0552A030E2F
:10003800556421EF00F023EF00F00FEF00F0730E8E
:100048003D6E010E3E6EABEC08F0730E466E010E6F
:10005800476E010E486E9B0E496EFF0E4A6EBBEC52
:1000680007F0730E466E020E476E010E486E7D0E47
:10007800496EFF0E4A6EBBEC07F072EF01F0000EFE
:10008800566E730E466E010E476E010E486E9B0E3D
:10009800496EFF0E4A6EBBEC07F0730E466E020EF9
:1000A800476E010E486E7D0E496EFF0E4A6EBBEC20
:1000B80007F0730E466E020E476E100E486EFC0E69
:1000C800496EFF0E4A6EBBEC07F05768FA0E326EA7
:1000D800000E336E000E346E000E356E7CEC08F0A8
:1000E800730E466E020E476E5650060F486E5F0E30
:1000F800496E0FEC0AF087EF00F08A0E3A6E570E41
:100108003B6E3CEC05F05728D8B48DEF00F08FEF2C
:1001180000F081EF00F0230E5718D8A496EF00F0F6
:1001280098EF00F09AEF00F07CEF01F0730E466E46
:10013800020E476E5650060F486E57C049F00FEC36
:100148000AF0FA0E326E000E336E000E346E000E98
:10015800356E7CEC08F0730E466E020E476E5650F4
:10016800060F486E2A0E496E0FEC0AF056504F0FD4
:10017800D96EDA6A57C0DFFF562A030E5664C7EFF6
:1001880000F0C9EF00F045EF00F04F0E326E4B0E55
:10019800336E040E346EC9EC09F0576E5750D8B45C
:1001A800D8EF00F0DAEF00F0F8EF00F0730E3D6ED4
:1001B800010E3E6EABEC08F0730E466E010E476EF4
:1001C800010E486E5C0E496EFF0E4A6EBBEC07F0DE
:1001D800E80E326E030E336E000E346E000E356E6E
:1001E8007CEC08F07AEF01F0730E3D6E010E3E6E66
:1001F800ABEC08F0730E466E010E476E010E486EAA
:10020800CA0E496EFF0E4A6EBBEC07F0730E466EBF
:10021800020E476E010E486ED50E496EFF0E4A6EED
:10022800BBEC07F0730E466E020E476E0B0E486E5F
:1002380054502F0F496E0FEC0AF0F40E326E010E77
:10024800336E000E346E000E356E7CEC08F0730EC3
:10025800466E020E476E060E486EE80E496EFF0E99
:100268004A6EBBEC07F054065450D8A43EEF01F098
:1002780040EF01F072EF01F0030E546E532A030EA3
:100288005318D8A44AEF01F04CEF01F04EEF01F0FB
:1002980047EC0AF0730E3D6E010E3E6EABEC08F0B3
:1002A800730E466E010E476E010E486E4E0E496E75
:1002B800FF0E4A6EBBEC07F0880E326E130E336EDB
:1002C800000E346E000E356E7CEC08F0730E3D6E39
:1002D800010E3E6EABEC08F072EF01F05450D8A45A
:1002E80078EF01F07AEF01F043EF00F07FEC09F0CE
:1002F8001200000E536E030E546E000E556E180E4B
:100308005524326E336A000E332255504B0F346E2B
:100318002DEC0AF0552A030E556495EF01F097EF7E
:1003280001F083EF01F0730E3D6E010E3E6EABECF3
:1003380008F0730E466E010E476E010E486E8F0E62
:10034800496EFF0E4A6EBBEC07F0730E466E020E46
:10035800476E010E486E7D0E496EFF0E4A6EBBEC6D
:1003680007F0E6EF02F0000E566E730E466E010EB1
:10037800476E010E486E8F0E496EFF0E4A6EBBEC3B
:1003880007F0730E466E020E476E010E486E7D0E24
:10039800496EFF0E4A6EBBEC07F0730E466E020EF6
:1003A800476E100E486EFC0E496EFF0E4A6EBBEC8F
:1003B80007F05768FA0E326E000E336E000E346E78
:1003C800000E356E7CEC08F0730E466E020E476E1A
:1003D8005650060F486E5F0E496E0FEC0AF0FBEFA1
:1003E80001F08A0E3A6E570E3B6E3CEC05F057282A
:1003F800D8B401EF02F003EF02F0F5EF01F0230E9D
:100408005718D8A40AEF02F00CEF02F00EEF02F032
:10041800F0EF02F0730E466E020E476E5650060F4E
:10042800486E57C049F00FEC0AF0FA0E326E000E13
:10043800336E000E346E000E356E7CEC08F0730ED1
:10044800466E020E476E5650060F486E2A0E496ECB
:100458000FEC0AF056504F0FD96EDA6A57C0DFFF1B
:10046800562A030E56643BEF02F03DEF02F0B9EF57
:1004780001F04F0E326E4B0E336E040E346EC9EC23
:1004880009F0576E5750D8B44CEF02F04EEF02F017
:100498006CEF02F0730E3D6E010E3E6EABEC08F091
:1004A800730E466E010E476E010E486E5C0E496E65
:1004B800FF0E4A6EBBEC07F0E80E326E030E336E89
:1004C800000E346E000E356E7CEC08F0EEEF02F094
:1004D800730E3D6E010E3E6EABEC08F0730E466E69
:1004E800010E476E010E486ECA0E496EFF0E4A6E27
:1004F800BBEC07F0730E466E020E476E010E486E97
:10050800D50E496EFF0E4A6EBBEC07F0730E466EB1
:10051800020E476E0B0E486E54502F0F496E0FECAB
:100528000AF0F40E326E010E336E000E346E000EB9
:10053800356E7CEC08F0730E466E020E476E060EA2
:10054800486EE80E496EFF0E4A6EBBEC07F0540683
:100558005450D8A4B2EF02F0B4EF02F0E6EF02F084
:10056800030E546E532A030E5318D8A4BEEF02F09C
:10057800C0EF02F0C2EF02F047EC0AF0730E3D6ED6
:10058800010E3E6EABEC08F0730E466E010E476E20
:10059800010E486E4E0E496EFF0E4A6EBBEC07F018
:1005A800880E326E130E336E000E346E000E356EEA
:1005B8007CEC08F0730E3D6E010E3E6EABEC08F05D
:1005C800E6EF02F05450D8A4ECEF02F0EEEF02F0A0
:1005D800B7EF01F0A4EC09F01200730E3D6E010EA6
:1005E8003E6EABEC08F0730E466E010E476E010EC0
:1005F800486E3F0E496EFF0E4A6EBBEC07F0730E55
:10060800466E020E476E010E486E830E496EFF0E4F
:100618004A6EBBEC07F0000E4C6E4B68730E466ECC
:10062800020E476E4C500C0F486E5F0E496E0FEC71
:100638000AF025EF03F08A0E3A6E4B0E3B6E3CEC47
:1006480005F04B28D8B42BEF03F02DEF03F01FEF84
:1006580003F0730E466E020E476E4C500C0F486E38
:100668004BC049F00FEC0AF05E0E326E010E336E8D
:10067800000E346E000E356E7CEC08F0730E466E7C
:10068800020E476E4C500C0F486E2A0E496E0FEC46
:100698000AF01C0E4C24326E336A000E33224BC013
:1006A80034F0EDEC09F04C2A030E4C645EEF03F0D5
:1006B80060EF03F011EF03F0730E3D6E010E3E6E16
:1006C800ABEC08F0730E466E010E476E010E486ED5
:1006D800430E496EFF0E4A6EBBEC07F0730E466E72
:1006E800020E476E010E486EBF0E496EFF0E4A6E2F
:1006F800BBEC07F0F40E326E010E336E000E346E52
:10070800000E356E7CEC08F01200730E3D6E010E83
:100718003E6EABEC08F0730E466E010E476E010E8E
:10072800486E300E496EFF0E4A6EBBEC07F0730E32
:10073800466E020E476E010E486E770E496EFF0E2A
:100748004A6EBBEC07F0000E4C6E4B68730E466E9B
:10075800020E476E4C500C0F486E5F0E496E0FEC40
:100768000AF0BDEF03F08A0E3A6E4B0E3B6E3CEC7E
:1007780005F04B28D8B4C3EF03F0C5EF03F0B7EF8B
:1007880003F0730E466E020E476E4C500C0F486E07
:100798004BC049F00FEC0AF05E0E326E010E336E5C
:1007A800000E346E000E356E7CEC08F0730E466E4B
:1007B800020E476E4C500C0F486E2A0E496E0FEC15
:1007C8000AF0180E4C24326E336A000E33224BC0E6
:1007D80034F0EDEC09F04C2A030E4C64F6EF03F00C
:1007E800F8EF03F0A9EF03F0730E3D6E010E3E6EB5
:1007F800ABEC08F0730E466E010E476E010E486EA4
:10080800340E496EFF0E4A6EBBEC07F0730E466E4F
:10081800020E476E010E486EBF0E496EFF0E4A6EFD
:10082800BBEC07F0F40E326E010E336E000E346E20
:10083800000E356E7CEC08F01200010E386E325056
:10084800D8B429EF04F02BEF04F03BEF04F032505A
:10085800D96EDA6ADF30E832E832070B336E070EFA
:10086800336439EF04F03BEF04F092EF04F0000E2C
:10087800386EB2EF04F03250D96EDA6ADF30E832FF
:10088800E832070B336E010E346E332A4EEF04F054
:10089800D8903436332E4CEF04F03450FF0A356EBE
:1008A8003250D96EDA6ADF50070B020DF350650F2C
:1008B800D96EDA6ADECF36F0DDCF37F036C0D9FF31
:1008C80037C0DAFF3550DF16B2EF04F03250D96E78
:1008D800DA6ADF30E832E832070B336E010E346E25
:1008E800332A79EF04F0D8903436332E77EF04F0BA
:1008F8003250D96EDA6ADF50070B020DF350650FDC
:10090800D96EDA6ADECF35F0DDCF36F035C0D9FFE3
:1009180036C0DAFF3450DF12B2EF04F03250D96E2D
:10092800DA6ADFBC9AEF04F09DEF04F0010E9EEF47
:1009380004F0000E336E346A3450000AD8B4A7EFBE
:1009480004F03BEF04F03350000AD8B43FEF04F052
:10095800010AD8B46AEF04F03BEF04F038501200F3
:10096800010E396E3250D8B4BCEF04F0BEEF04F07B
:10097800CEEF04F03250D96EDA6ADF30E832E8326E
:10098800070B346E070E3464CCEF04F0CEEF04F09E
:1009980025EF05F0000E396E3AEF05F03250D96EAA
:1009A800DA6ADF30E832E832070B346E010E356E52
:1009B800342AE1EF04F0D8903536342EDFEF04F016
:1009C8003550FF0A366E3250D96EDA6ADF50070B9F
:1009D800020DF3505B0FD96EDA6ADECF37F0DDCF48
:1009E80038F037C0D9FF38C0DAFF3650DF163AEF93
:1009F80005F03250D96EDA6ADF30E832E832070B98
:100A0800346E010E356E342A0CEF05F0D890353669
:100A1800342E0AEF05F03250D96EDA6ADF50070B30
:100A2800020DF3505B0FD96EDA6ADECF36F0DDCFF8
:100A380037F036C0D9FF37C0DAFF3550DF123AEF4A
:100A480005F03350346E356A3550000AD8B42FEFAC
:100A580005F0CEEF04F03450000AD8B4D2EF04F019
:100A6800010AD8B4FDEF04F0CEEF04F039501200BB
:100A7800000E3E6E000E406E000E416E000E3F6E80
:100A88003A50D8B44AEF05F04CEF05F054EF05F0B2
:100A98003B50D8A452EF05F054EF05F056EF05F09F
:100AA800ACEF05F0000E406E000E3F6E3A503F244A
:100AB800326E000E336EB4EC04F03F2A030E3F642E
:100AC80068EF05F06AEF05F05AEF05F03A50402458
:100AD800326E010E336EB4EC04F0000E416E3A50E3
:100AE8004124040F326E3E0E336E7FEC06F03E0456
:100AF800D8A481EF05F083EF05F09AEF05F0405098
:100B0800040DDD0EF3243C6EFE0EF4203D6E4150C4
:100B18003C26000E3D223CC0F6FF3DC0F7FFF86AB8
:100B28003B50D96EDA6A0800F5CFDFFF412A030E81
:100B38004164A1EF05F0A3EF05F073EF05F0402A3B
:100B4800030E4064AAEF05F0ACEF05F058EF05F08E
:100B58001200000E436E4050D8A4B5EF05F0B7EF71
:100B680005F0B9EF05F01BEF06F040C03AF04DEC88
:100B780008F0426E40283A6E4DEC08F0426E000EC6
:100B8800436E40504324020F3A6E4DEC08F0432A5E
:100B9800030E4364D2EF05F0D4EF05F0C5EF05F07E
:100BA800340E416EF20EE82EFED7412EFCD740C01F
:100BB8003DF0380E3E6EABEC08F00D0E416EFC0EAB
:100BC800E82EFED7412EFCD740C03DF0380E3E6ED1
:100BD800ABEC08F0640EE82EFED740C03DF0380EAE
:100BE8003E6EABEC08F040C03DF0010E3E6EABEC43
:100BF80008F040C03DF0020E3E6EABEC08F040C07D
:100C08003DF0060E3E6EABEC08F040C03DF00C0E19
:100C18003E6EABEC08F040C03DF0280E3E6EABECEB
:100C280008F040C03DF0800E3E6EABEC08F01200BC
:100C38005A68730E3D6E010E3E6EABEC08F0730EF3
:100C4800466E010E476E010E486EDF0E496EFF0EAE
:100C58004A6EBBEC07F0730E466E020E476E010E2D
:100C6800486E0F0E496EFF0E4A6EBBEC07F0FA0E87
:100C7800326E000E336E000E346E000E356E7CEC54
:100C880008F04DEF06F08A0E3A6E5A0E3B6E3CECB9
:100C980005F0310E5A18D8B454EF06F056EF06F0A6
:100CA80069EF06F0320E5A18D8A45DEF06F05FEF30
:100CB80006F047EF06F069EF06F07DEC01F07EEFF5
:100CC80006F009EC00F07EEF06F05A50586E596AAB
:100CD8005950000AD8B473EF06F07EEF06F058506A
:100CE800310AD8B461EF06F0030AD8B465EF06F00C
:100CF8007EEF06F01200010E386E3250D8B487EF3E
:100D080006F089EF06F0A1EF06F03350D8B48FEF64
:100D180006F091EF06F0A1EF06F03250D96EDA6ACC
:100D2800DF30E832E832070B346E070E34649FEF89
:100D380006F0A1EF06F0A5EF06F0000E386ECFEF33
:100D480006F03350D96EDA6A3250E16EE26AE73063
:100D5800E832E832070B346E3250E16EE26AE7504F
:100D6800070B020DF350800FE16EE26AE6CF35F013
:100D7800E5CF36F035C0E1FF36C0E2FFE750376E09
:100D8800342AC9EF06F0D8903732342EC7EF06F070
:100D98003750010BDF6E3850120006009DA8D7EFC0
:100DA80006F0D9EF06F0E2EF06F09EA8DEEF06F0B7
:100DB800E0EF06F0E2EF06F0B5EC0AF09DAAE7EFE7
:100DC80006F0E9EF06F0F2EF06F09EAAEEEF06F065
:100DD800F0EF06F0F2EF06F0B7EC0AF09DA6F7EF99
:100DE80006F0F9EF06F002EF07F09EA6FEEF06F018
:100DF80000EF07F002EF07F0B1EC0AF0A0A607EF4A
:100E080007F009EF07F012EF07F0A1A60EEF07F0C1
:100E180010EF07F012EF07F0B3EC0AF07C92110024
:100E2800000E4D6E000E336E180E326E4D0E346E7F
:100E38002DEC0AF04D28D8A424EF07F026EF07F090
:100E480052EF07F0730E3D6E010E3E6EABEC08F0EC
:100E5800730E466E010E476E010E486E200E496EE7
:100E6800FF0E4A6EBBEC07F0730E466E020E476E1D
:100E7800010E486EEF0E496EFF0E4A6EBBEC07F08E
:100E8800F40E326E010E336E000E346E000E356EA7
:100E98007CEC08F089EC03F0F1EC02F012003A5017
:100EA800D8A459EF07F05BEF07F05DEF07F087EF85
:100EB80007F030C03CF03A50D96EDA6ADF500F0BB9
:100EC8003B6E3C503B18F80B3B183C6E3A50D96EC1
:100ED800DA6ADF38070B3B6E3B463B463B463C50E5
:100EE8003B18C70B3B183C6E3C9C3A50D96EDA6AEB
:100EF800DFAE02D03C8E01D03C9E3C0E326E010E1D
:100F0800336EB4EC04F012003D50D8A48EEF07F015
:100F180090EF07F092EF07F0BAEF07F031C03FF01B
:100F28003D50D96EDA6ADF500F0B3E6E3F503E18C7
:100F3800F80B3E183F6E3D50D96EDA6ADF38070B62
:100F48003E6E3E463E463E463F503E18C70B3E1854
:100F58003F6E3F9C3D50D96EDA6ADFAE02D03F8EBD
:100F680001D03F9E3F0E3A6E4DEC08F012004650FD
:100F7800D8A4C1EF07F0C3EF07F0C5EF07F0ECEF17
:100F880007F046C040F047C041F048C042F01DECB1
:100F980008F0DDEF07F046C03DF049C0F6FF4AC053
:100FA800F7FFF86A0800F5CF3EF0D7EC08F0494A99
:100FB8004A2A49C0F6FF4AC0F7FFF86A0800F55008
:100FC8000009D8A4EAEF07F0ECEF07F0CFEF07F03D
:100FD8001200000E3E6E000E3F6E3D50D8A4F7EF93
:100FE80007F0F9EF07F0FBEF07F01CEF08F0000E31
:100FF8003E6E3D503E243A6E4DEC08F03E2A030EFC
:101008003E6409EF08F00BEF08F0FDEF07F0000E63
:101018003F6E3D503F24040F326E21EC04F03F2A0E
:10102800030E3F641AEF08F01CEF08F00DEF08F00C
:101038001200000E456E420636EF08F040C03DF043
:101048004250800F3E6EABEC08F0456E4BEF08F057
:1010580040C03DF04250C00F3E6EABEC08F0456E0C
:101068004BEF08F04150436E446A4450000AD8B42C
:1010780040EF08F04BEF08F04350010AD8B422EFD4
:1010880008F0030AD8B42CEF08F04BEF08F04550ED
:101098001200010E3C6E3A50D8B455EF08F057EFE5
:1010A80008F067EF08F03A50D96EDA6ADF30E832B4
:1010B800E832070B3B6E070E3B6465EF08F067EFFD
:1010C80008F06BEF08F0000E3C6E7AEF08F03AC0BB
:1010D80032F021EC04F03AC032F03A50D96EDA6AB4
:1010E800000EDFBE010E336EB4EC04F03C5012006B
:1010F800000E3B6E000E3A6E95EF08F0000E3D6E46
:10110800000E3C6E3C4A3D2A3D5009E1870E3C5C8E
:10111800D8A091EF08F093EF08F086EF08F03A4A6C
:101128003B2A3A50366E3B50376E386A396A32502D
:10113800365C335037583450385835503958D8A061
:10114800A8EF08F0AAEF08F082EF08F012003D506F
:10115800D8A4B1EF08F0B3EF08F0B7EF08F0000E2D
:101168003F6ED5EF08F03DC032F0000E336EB4ECA0
:1011780004F03F6E3DC03AF03E380F0B3B6E57EC23
:1011880009F03F6E3DC03AF075EC0AF03DC03AF008
:101198003EC03BF057EC09F03F6E3DC03AF075ECAD
:1011A8000AF03F5012003D50D8A4DDEF08F0DFEF01
:1011B80008F0E3EF08F0000E3F6E01EF09F03DC0C4
:1011C80032F0010E336EB4EC04F03F6E3DC03AF0DD
:1011D8003E380F0B3B6E57EC09F03F6E3DC03AF0BE
:1011E80075EC0AF03DC03AF03EC03BF057EC09F010
:1011F8003F6E3DC03AF075EC0AF03F5012004A0EBF
:10120800F66E150EF76E000EF86E00EE80F010EE1A
:1012180012F00900F5CFEEFFE550E150FAE1100EAB
:10122800F66E150EF76E000EF86E00EE5BF010EE1F
:1012380021F00900F5CFEEFFE550E150FAE100EEAC
:1012480001F0310EEE6AE806FDE17C907C92000127
:1012580099EF0AF0730E3D6E010E3E6EABEC08F08E
:10126800730E466E010E476E010E486EFE0E496EF5
:10127800FE0E4A6EBBEC07F0730E466E020E476E0A
:10128800010E486EF40E496EFF0E4A6EBBEC07F075
:10129800F40E326E010E336E000E346E000E356E93
:1012A8007CEC08F012003A50020F326E3B50010BF2
:1012B800336EB4EC04F03A50030F326ED8903B30E2
:1012C800010B336EB4EC04F03A50040F326E3B401D
:1012D800E8423F0B010B336EB4EC04F03A50050FB3
:1012E800326E3B38E8461F0B010B336EB4EC04F04A
:1012F8003C6E3C501200730E3D6E010E3E6EABEC20
:1013080008F0730E466E010E476E010E486EB30E5E
:10131800496EFF0E4A6EBBEC07F0730E466E020E66
:10132800476E010E486E6A0E496EFF0E4A6EBBECA0
:1013380007F07A0E3A6E53EC07F0A1EF09F01200AD
:10134800730E3D6E010E3E6EABEC08F0730E466EEA
:10135800010E476E010E486EA70E496EFF0E4A6ECB
:10136800BBEC07F0730E466E020E476E010E486E18
:101378006A0E496EFF0E4A6EBBEC07F07B0E3A6EA2
:1013880053EC07F0C6EF09F01200000E376EE2EFDB
:1013980009F033503724D96EDA6A32503724E16EB7
:1013A800E26ADE50E618D8B4DCEF09F0DEEF09F0A7
:1013B800E1EF09F0000EECEF09F0372A3450375C02
:1013C800D8A0E9EF09F0EBEF09F0CDEF09F0010E35
:1013D8001200000EF2BE010E356E3350030BAA6EDA
:1013E80032C0A9FF34C0A8FFA69EA69CA684F29E80
:1013F800550EA76EAA0EA76EA682A6B206EF0AF031
:1014080008EF0AF001EF0AF0A69435B002D0F29E78
:1014180001D0F28E12004650D8A415EF0AF017EF4B
:101428000AF01BEF0AF0000E4A6E2BEF0AF046C0D6
:1014380040F047C041F048C042F01DEC08F04A6E49
:1014480046C03DF049C03EF0D7EC08F04A6E4A501D
:1014580012003450D8A433EF0AF035EF0AF037EF12
:101468000AF046EF0AF03350030BAA6E32C0A9FF08
:10147800A69EA69CA680000000003450D96EDA6AA9
:10148800A8CFDFFF1200730E3D6E010E3E6EABEC6F
:1014980008F0730E466E010E476E010E486EED0E93
:1014A800496EFE0E4A6EBBEC07F0790E3A6E53ECAD
:1014B80007F05DEF0AF01200730E406EADEC05F018
:1014C8008A0E3D6EEDEC07F07B0E3D6E88EC07F062
:1014D8007A0E3D6E88EC07F0790E3D6E88EC07F0C9
:1014E80012003A28326E010E336EB4EC04F01A0E74
:1014F800E82EFED700D03A28326E000E336EB4ECD8
:1015080004F03B6E3B501200890F8A0F8B0F8C0F33
:101518008D0F920F930F940F950F960F01010101F4
:0915280020280008101823130309
:10153200AEEC0AF02EEC09F014EC07F01CEC06F00D
:101542009FEF0AF007EF00F0800F810F820F830FE9
:10155200840F010911196169717960EC0AF01200B6
:0E1562009E961200A19612009D981200120093
:10FEDC00003738392F3435362A3132332D23303D23
:10FEEC002B53797374656D2053687574446F776EFA
:10FEFC00210057656C636F6D6520746F20536D61C5
:10FF0C00727400312E41646D696E2020322E47755B
:10FF1C00657374004C6F67696E20666F722066693A
:10FF2C00727374005365742041646D696E20506166
:10FF3C007373005365742047756573742050617337
:10FF4C00730057616974696E6720352053656300CF
:10FF5C004C6F67696E205375636365737300436FF1
:10FF6C006E74726F6C20486572650041646D696EC9
:10FF7C0020506173733A0047756573742050617338
:10FF8C00733A0041646D696E204C6F67696E00476F
:10FF9C0075657374204C6F67696E0041646D696E92
:10FFAC0020537461727400477565737420537461C7
:10FFBC0072740043726561746564203A290057724B
:10FFCC006F6E6720506173730054727920416761C2
:10FFDC00696E004C6F67696E2061730020202020D1
:10FFEC0020200074696D6500486F6D6500256900FF
:03FFFC00480000BA
:020000040030CA
:0E000000FF02091EFF8181FF0FC00FE00F40BD
:00000001FF
